:020000040000FA
:040000008A117628C3
:08000800FE00030E8301AC00B1
:100010000A08AD008A016D2882070934FF340034D4
:10002000003408340034FF3400340A34003400341F
:10003000FF340B34FF34FF34FF340D34FF346634A7
:1000400066340C34B234FF3466340E340034003479
:1000500099341534FF348034003414340034FF34C0
:10006000FF3416345634FF3499341934FF34B23423
:10007000663418340034FF3480341A34CC340034FD
:10008000CC341134FF34FF3400341034003499344C
:100090004C341234FF343334FF341030AE00A4013A
:1000A000A5010310A80DA90D0310A20DA30DA40D09
:1000B000A50D25082702031D5F2824082602031921
:1000C000632803186A282708A5022608A402031C2F
:1000D000A5032814AE0B512808007F08AF000408C0
:1000E000B1002008AA002108AB00B42BFD107D0848
:1000F0008500831685107D107D0883128500831688
:100100000510FD127D0883128500831685129F015C
:1001100083129F019A019C0183120313AD30A0004A
:10012000E630A1000A128A11A10B92280A128A1144
:10013000A00B90280000000000000000000000005C
:100140000000000000009010CF3010051038900023
:10015000FA2A83160515EB2083125F10B62083164A
:100160000C140B170B160B178B170800DF15080064
:1001700020105F18201408004008E4004208E60040
:100180005F106408080010105F1DCA28FF30A0002F
:10019000A10008000E08A0000F08A10008008E01B1
:1001A0008F015F110C101014080083120C1CDC2846
:1001B00010100C105F158B142A08A0002B08A1004A
:1001C000310884002F08FF002D088A002C0E8300C0
:1001D000FE0E7E0E09008312BE01DF1010105F11AB
:1001E0000C10831601138B10080037108B1C01298B
:1001F0008B108316011FFE280113FF28011783129D
:1002000037142010371820140800F52083123210FC
:1002100020183214321CD528C32083122008BC00B9
:100220002108BD00CF2083123E08031D1A2901308A
:10023000BE00D5283E03031D4E29FF0100307F027A
:10024000031D2C2900307F02031D2C291A303D028A
:10025000031D2C295E303C02B211031D0318B21598
:10026000FF0100307F02031D3F2900307F02031D84
:100270003F292B303D02031D3F29F2303C02321250
:10028000031D031C3216B216B219321EB212B21E70
:100290004C290230BE00D528EB20D52802303E0282
:1002A000031DB829FF0100307F02031D61290030C2
:1002B0007F02031D61290D303D02031D61292F308E
:1002C0003C02B213031D0318B217FF0100307F0276
:1002D000031D742900307F02031D742915303D026F
:1002E000031D7429F9303C023310031D031C331421
:1002F000B314B21B331CB310B31C8729DF14B8012D
:10030000B901BA01BB01BF010330BE00D528FF010E
:1003100000307F02031D962900307F02031D9629BD
:1003200006303D02031D962998303C023311031D0F
:1003300003183315FF0100307F02031DA929003087
:100340007F02031DA9290A303D02031DA929FC30A3
:100350003C02B311031D031CB31533163319B31D2F
:100360003312331EB6290530BE00D528EB20D52820
:1003700003303E02031D5D2ADF1CEE29FF01003021
:100380007F02031DCD2900307F02031DCD290130DE
:100390003D02031DCD29A6303C023313031D031873
:1003A0003317FF0100307F02031DE02900307F0278
:1003B000031DE02902303D02031DE029BF303C024D
:1003C000B313031D031CB3173414331BB31F3410B2
:1003D000341CEC29DF104C2AEB204C2AFF010030A2
:1003E0007F02031DFD2900307F02031DFD2901301E
:1003F0003D02031DFD29A6303C02B410031D031865
:10040000B414FF0100307F02031D102A00307F0268
:10041000031D102A02303D02031D102ABF303C028A
:100420003411031D031C3415B415B418341DB41154
:10043000B41D1C2ADF144C2AFF0100307F02031D6B
:100440002B2A00307F02031D2B2A04303D02031D9E
:100450002B2AF3303C023412031D03183416FF011B
:1004600000307F02031D3E2A00307F02031D3E2A1A
:1004700008303D02031D3E2A3D303C02B412031DEC
:10048000031CB4163417341AB41E3413341F4B2A09
:10049000BB17DF144C2AEB208312DF1CD528BF0AC0
:1004A00020303F02031D572A0430BE00D528031018
:1004B000BB0CBA0CB90CB80CD52804303E02031D95
:1004C000CA2AFF0100307F02031D702A00307F021C
:1004D000031D702A01303D02031D702AA6303C0224
:1004E000B510031D0318B514FF0100307F02031D72
:1004F000832A00307F02031D832A02303D02031D40
:10050000832ABF303C023511031D031C3515B51578
:10051000B518351DB511B51DC82A3808C0003908F1
:10052000B8003A08B9003B08BA00BB013808C1005E
:100530003908B8003A08B9003B08BA00BB013808CE
:10054000C2003908B8003A08B9003B08BA00BB013C
:100550003808C300FF30C106FF30C306DF1DC22AC2
:100560004008410235120319351642084302B512FC
:100570000319B5163517351AB51E3513351FC62A9A
:100580005F14C62A4208430203195F14EB20D528E2
:10059000EB20D52805303E02031DD528FF01003091
:1005A0007F02031DDD2A00307F02031DDD2A01309A
:1005B0003D02031DDD2AA6303C02B610031D0318C0
:1005C000B614FF0100307F02031DF02A00307F02C5
:1005D000031DF02A02303D02031DF02ABF303C0209
:1005E0003611031D031C3615B615B618361DB61187
:1005F000EB20D528831605127D127D088312850015
:100600001B2C0310450CEC00440CEB000310EC0C0D
:10061000EB0C6B084406ED006C084506EE00031079
:10062000450CF000440CEF000310F00CEF0C03102D
:10063000F00CEF0C6F086D06F10070086E06F2000A
:100640000310450CF400440CF3000430A000031028
:10065000F40CF30CA00B272B73087106F50074083B
:100660007206F60001307505E900EA010310450C39
:10067000EC00440CEB00ED01EE016918EE176D087B
:100680006B04C4006E086C04C5004408A000450853
:10069000A1000800012383122008E4003230640224
:1006A0000319562B0318562B3230E4076408080050
:1006B000012383122008E7002108E8000830A60083
:1006C0000730A7006708A2006808A3004D20831226
:1006D0002408E4002508E50002306502031D722BA2
:1006E0005830640203197C2B03187C2B0230E50779
:1006F0005830E4070318E50A6408A0006508A10063
:100700000800FD107D08831285007D107D0885009E
:10071000FD127D088500D601C601C7015F12D70111
:10072000C801C901DF12D801CA01CB015F13D3018F
:10073000D401D501080081236D308312CC00033031
:10074000CD00DF13121187309205FC309205E330A3
:10075000831692008312CE018C1083168C140B1713
:100760008B1783121215080032108C1CBC2B8316B9
:100770008C1CBC2B831232148312321C05298C1062
:100780004E08031DE72B7D30CE005308D0005408DF
:10079000D1005508D200323050020319D12B031C6E
:1007A000D42BFD147D088500323051020319DA2B59
:1007B000031CDD2B7D147D088500323052020319A5
:1007C000E32B031CE82BFD167D088500E82BCE03E8
:1007D000323050020319EE2B031CF12B0230D002F1
:1007E000F42BFD107D088500323051020319FA2BDD
:1007F000031CFD2B0230D102002C7D107D088500EA
:10080000323052020319062C031C092C0230D2028A
:100810000C2CFD127D0885004C084D04031D162C80
:100820006D30CC000330CD00DF170529CC034C0A16
:100830000319CD03052944084504031D232CE13089
:10084000C400AC30C500A9209B2383126010B820DF
:100850008312601120186015601D892CBC20831242
:10086000D9006608DA005908031D892C601C7E2C0B
:10087000DB0103105B0DDC000310DC0D00308A008F
:100880005C080C208312A00020085A02031D712C62
:1008900003105B0DDD000310DD0D5D0ADE0000308E
:1008A0008A005E080C208312D30003105B0DDC006D
:1008B0000310DC0D02305C07DD0000308A005D08AB
:1008C0000C208312D40003105B0DDC000310DC0D40
:1008D00003305C07DD0000308A005D080C208312C5
:1008E000D500DB0A10305B02031D392C06305A029A
:1008F000031D892C812383126010892C07305A0232
:10090000031D892CFA30D300FA30D400FA30D50018
:10091000601460186110601C6114E114DF1B611C1D
:10092000E110E11C272CDF1346084704031DAA2C05
:100930004A238312CF0056025F120319A12C031C15
:100940005F164F08D600582383122008C6002108DE
:10095000C700AE2CC603460A0319C703480849045A
:10096000031DC42C4A238312CF005702DF12031940
:10097000BB2C031CDF164F08D70058238312200816
:10098000C8002108C900C82CC803480A0319C903B4
:100990004A084B04031DDE2C4A238312CF00580261
:1009A0005F130319D52C031C5F174F08D800582379
:1009B00083122008CA002108CB00E22CCA034A0A8D
:1009C0000319CB035F1EED2C530856020319F52CB7
:1009D000031CF52C0230D307F52C323053020319D7
:1009E000F32C031CF52C0230D302DF1E002D54081B
:1009F00057020319082D031C082D0230D407082DB7
:100A0000323054020319062D031C082D0230D40283
:100A10005F1F132D550858020319272C031C272C80
:100A20000230D507272C323055020319192D031C2B
:080A3000272C0230D502272C0F
:02400E00C43CB0
:00000001FF
